:020000040800F2
:10000000182E0020990100089F1F0008751D000888
:100010009D1F000823060008B72A00080000000002
:10002000000000000000000000000000AD240008F7
:100030002506000800000000A11F0008AF240008EA
:10004000B3010008B3010008B3010008B3010008C0
:10005000B3010008B3010008B3010008B3010008B0
:10006000B3010008B3010008B3010008B3010008A0
:10007000B3010008B3010008B3010008B301000890
:10008000B3010008B3010008B3010008B301000880
:10009000B3010008B3010008B3010008B301000870
:1000A000B301000815250008B3010008B3010008DA
:1000B000B3010008B3010008B3010008B301000850
:1000C000B3010008B3010008B3010008B301000840
:1000D000B3010008E5290008B3010008B3010008D6
:1000E000B3010008B3010008B301000800F002F8F2
:1000F00000F042F80AA090E8000C82448344AAF180
:100100000107DA4501D100F037F8AFF2090EBAE87D
:100110000F0013F0010F18BFFB1A43F0010318473B
:100120007440000094400000103A24BF78C878C1A1
:10013000FAD8520724BF30C830C144BF04680C60ED
:10014000704700000023002400250026103A28BF35
:1001500078C1FBD8520728BF30C148BF0B60704739
:10016000642900F08B80732900F01D820020704705
:100170001FB51FBD10B510BD00F019FA1146FFF7ED
:10018000F7FF03F039FC00F037FA03B4FFF7F2FF92
:1001900003BC00F03FFA00000948804709480047C7
:1001A000FEE7FEE7FEE7FEE7FEE7FEE7FEE7FEE727
:1001B000FEE7FEE704480549054A064B7047000084
:1001C00011250008ED000008180C0020182E002052
:1001D000180E0020180E00200FB41CB5084B06AAFC
:1001E0007B4469460090059800F0B3F9044600206E
:1001F000694600F0C1F920461CBC5DF814FB000004
:100200009503000009684A0501D540B27047C90549
:10021000FCD500B2704709684A0501D5C0B27047E5
:10022000C905FCD580B2704770B50C460546012A59
:1002300005D02878800600D5EA69002302E0012372
:1002400005E05B1C934202D2E05C0028F9D1A8696A
:10025000E618C01AA861286A184428622846AFF335
:10026000008004E0D5E9012114F8010B9047B44265
:10027000F8D32846AFF3008070BD00002DE9F041AF
:100280000646002410687529314616A510D0FFF7E0
:10029000B9FF002802DA404213A507E031688A0757
:1002A00001D512A502E0490704D511A5012401E0FA
:1002B000FFF7B1FF00210A2206F1240709E0B0FB95
:1002C000F2FCB0FBF2F302FB1C003030785418460D
:1002D000491C0028F3D123462A463046BDE8F041A8
:1002E00000F0D9B8000000002D0000002B00000035
:1002F000200000002DE9F0410F460546002028624D
:100300002846E968884770B3252805D0D5E901213A
:100310009047286A401CF2E7E9682846002688478B
:100320006C2804460AD0682C08D04C2C35D06A2C96
:1003300031D0742C31D07A2C2FD016E0E9680646E3
:1003400028468847B042044608D16C2E23D04FF48B
:1003500080662846E9688847044606E06C2E03D08C
:100360004FF4807601E01EE04026E4B1A4F14100A4
:10037000192802D8203446F400663A462146284619
:100380002E60FFF7EDFE60B1012808D0FF1D27F0B9
:1003900007070837B4E78026DBE70026D9E73F1DCB
:1003A000AEE72046B2E7286ABDE8F08140EA0103E3
:1003B00070B59B072ED14FF00136042A2AD308C806
:1003C00010C99D1B9D43121F15EAC61517D0D8B240
:1003D000E1B2401A50EA056110D198B2A1B2401AB8
:1003E00050EA05410AD123F07F4024F07F41401AB2
:1003F00050EA052102D1180EA0EB146070BDA34293
:10040000DBD018BA21BA884201D9012070BD4FF063
:10041000FF3070BD0AB9002070BD10F8013B11F823
:10042000014B63B1A3420AD1521E08D010F8013B20
:1004300011F8014B1BB1A34201D1521EEDD1181B83
:1004400070BD4FF0000200B5134694469646203921
:1004500022BFA0E80C50A0E80C50B1F12001BFF47D
:10046000F7AF090728BFA0E80C5048BF0CC05DF8E3
:1004700004EB890028BF40F8042B08BF704748BF31
:1004800020F8022B11F0804F18BF00F8012B7047A5
:100490007047704770472DE9F0470D4699469246E0
:1004A000044600F124080168880604D5E06921F0BB
:1004B0001001216000E00120A84201DD471B00E09F
:1004C0000027A1697A1902EB0900081AA0612078B7
:1004D000C00602D42046AFF30080002608E0D4E92D
:1004E00001211AF806009047206A401C761C206201
:1004F0004E45F4DB2078C0060AD52046AFF30080D5
:1005000006E0D4E9012130209047206A401C206297
:10051000381EA7F10107F4DC07E0D4E9012118F83F
:1005200005009047206A401C2062281EA5F10105A5
:10053000F3DC2046AFF300802078000602D50220CD
:10054000BDE8F0870120FBE701694A1C02610878D9
:10055000704700B58FB0CDE9013100210591054903
:100560007944CDE9031011466846FFF7C3FE0FB08A
:1005700000BD0000E5FFFFFF0A6802F8010B0A60FA
:10058000704710B5436913B1AFF3008001E0FFF786
:100590004BFE012010BD127800F124010A700022E8
:1005A0004A700122EDE711684FF0FF32E9E7754626
:1005B00000F02CF8AE4605006946534620F00700CF
:1005C000854618B020B5FFF7F5FDBDE820404FF097
:1005D00000064FF000074FF000084FF0000B21F02D
:1005E0000701AC46ACE8C009ACE8C009ACE8C009FA
:1005F000ACE8C0098D46704710B50446AFF30080E3
:100600002046BDE81040FFF7C0BD0000004870471D
:10061000B40B002001491820ABBEFEE72600020003
:100620007047FEE7704772B6FEE70022AFF3008026
:1006300030B50E4B054601205C7A012C15D8587A4E
:1006400000241C54587A03EB800045605D7A03F166
:1006500008002A54587A421C5A72303008703A20E6
:1006600048702F208870CC70002030BDA80B00206F
:1006700010B590F821100022022905D004218163D1
:1006800080F82020012010BD01680B6823F00E03C4
:100690000B6001680B6823F001030B6090F8403099
:1006A000C46B012101FA03F3636080F8211080F824
:1006B0002020104610BD000010B590F82110002435
:1006C000022903D00421816301243DE001680A6806
:1006D00022F00E020A6001680A6822F001020A6034
:1006E0001A4A0168914201D1012121E0174A1432CE
:1006F000914201D110211BE0144A2832914201D1CC
:10070000891515E0114A3C32914201D189140FE05C
:100710000E4A5032914202D14FF4803108E00B4A28
:100720006432914202D14FF4801101E04FF08071A8
:10073000064A083A5160012180F82110002180F812
:100740002010416B01B18847204610BD08000240CF
:1007500070B5044600F004F90546601C02D0044858
:100760000078044400F0FCF8401BA042FAD370BDAE
:10077000400000202DE9F84FDFF8B8910024A9F1DE
:10078000040B23460F2709F1040AABF1040EC9E05C
:100790000125A5402A40AA427DD1674ED1F804C068
:1007A000ACEB0608B44532D014DCBCF1030F3AD0F0
:1007B00009DCBCF1000F2AD0BCF1010F1CD0BCF148
:1007C000020F31D11DE0BCF1110F17D0BCF1120F97
:1007D0002AD119E0B8F5881F19D006DCB8F5803F9A
:1007E00015D0B8F5801F1FD111E0B8F5001F0ED04D
:1007F000B8F5041F18D10AE0CB6815E0CB681B1DC3
:1008000012E0CB6808330FE0CB680C330CE08B6848
:100810002BB1012B4FF0080303D0456104E0042302
:1008200002E0056100E00023FF2A01D8064601E04E
:1008300000F104064FEA840501D9A5F12005D6F898
:10084000008007FA05FC28EA0C0803FA05F548EAD7
:100850000508C6F800804D68ED0062D5374DAE69D9
:1008600046F00106AE61AD6924F0030605F001050E
:100870000095334D06EB050CDCF80850A607360F43
:1008800007FA06F825EA0805DFF8B880404503D1E5
:100890004FF0000817E044E0DFF8AC80404502D19B
:1008A0004FF001080FE0DFF8A480404502D14FF07F
:1008B000020808E0DFF89880404502D14FF00308B5
:1008C00001E04FF0040808FA06F848EA0508CCF8F9
:1008D00008804D68D9F80060ED024D4601D51643F9
:1008E00000E096432E604D68DAF80060AD02554690
:1008F00001D5164300E096432E604D68DBF800609A
:10090000AD035D4601D5164300E096432E604D6869
:10091000DEF80060ED03754601D5164300E096430E
:100920002E60641C0D682A46E5407FF431AFBDE8B7
:10093000F88F000008040140000011100010024070
:100940000000014000080140000C0140001001407F
:10095000001401400AB1016170470904FBE700007F
:10096000014880687047000040000020024881680C
:10097000027811448160704740000020074810B59C
:10098000016841F010010160032000F075F80F20AC
:1009900000F006F800F024F8002010BD002002400E
:1009A00070B50D4D04464FF47A712878B1FBF0F024
:1009B0000A490968B1FBF0F000F066FC48B9102C58
:1009C00007D200222146501E00F036F800206C604D
:1009D00070BD012070BD0000400000204C000020D0
:1009E0000C4808B5816941F001018161816901F01C
:1009F00001010091C16941F08051C161C06900F0FD
:100A0000805000900448416821F0E06141F000719D
:100A1000416008BD0010024000000140002809DBD1
:100A200000F01F02012191404009800000F1E02008
:100A3000C0F8001170470000F0B40E4B1B680C4664
:100A4000C3F30223C3F10705042D00D90425191DA2
:100A5000072901D2002300E0DB1E012606FA05F17A
:100A6000491E214099409E40761E16403143F0BCFD
:100A700002F022B80CED00E0064900F00702086819
:100A80004FF6FF03184040EA0220034A1043086073
:100A9000704700000CED00E00000FA052DE9F0477A
:100AA0000F46050061D0434E306800F00700B842A1
:100AB00009D2306820F0070038433060306800F019
:100AC0000700B84251D128683B4C810712D5400736
:100AD00003D5606840F4E06060602878000703D5C3
:100AE000606840F4605060606068A96820F0F000C1
:100AF000084360602878C00728D06868012810D0B3
:100B00002168022810D0890700292EDA616821F0B7
:100B1000030101436160FFF723FF804641F28839FA
:100B20000DE021688903EFE78901EDE7FFF718FF82
:100B3000A0EB0801494502D90320BDE8F0876068B1
:100B4000696800F00C00B0EB810FEFD1306800F065
:100B50000700B8420BD9306820F0070038433060F6
:100B6000306800F00700B84201D00120E5E728789E
:100B7000400705D56068E96820F4E06008436060DC
:100B80002878000706D56068296920F4605040EA9B
:100B9000C100606000F038F86168084AC1F30311D1
:100BA000515CC8400649086006480068FFF7F8FE37
:100BB0000020C2E70020024000100240CE400008A2
:100BC0004C000020440000200448054900684968A2
:100BD000044AC1F30221515CC84070474C00002018
:100BE00000100240DE4000080448054900684968DA
:100BF000044AC1F3C221515CC84070474C00002038
:100C000000100240DE4000080E4A51680E4801F014
:100C10000C03042B11D0082B0FD10C48C1F38343D4
:100C2000C903C05C0AD55168084AC1F34041921E0D
:100C3000515C054A5043B0FBF1F07047044948430A
:100C4000704700000010024000127A00BE40000809
:100C500000093D002DE9F84F040070D02078C04D08
:100C6000C00749D06868C0F38100012807D06868D0
:100C7000C0F38100022809D16868C00306D528683E
:100C8000800339D560680028E7D035E06068B0F5AA
:100C9000803F0BD010B1B0F5A02F11D0286820F400
:100CA00080302860286820F4802002E0286840F422
:100CB00080302860606890B1FFF752FE06460AE077
:100CC000286840F480202860F0E700BFFFF748FE66
:100CD000801B642873D828688003F7D50CE0FFF7E1
:100CE0003FFE064605E000BFFFF73AFE801B642882
:100CF000F0D828688003F7D420789A4E80074FF008
:100D000001094FF0000839D5686810F00C0F07D0C2
:100D10006868C0F38100022809D16868C00306D45E
:100D20002868800714D52069012808D110E02069BF
:100D3000B0B1C6F80090FFF713FE074605E00AE1E0
:100D4000FFF70EFEC01B0228C4D828688007F7D51D
:100D50002868616920F0F80040EAC10028600DE0D1
:100D6000C6F80080FFF7FCFD074604E0FFF7F8FD3A
:100D7000C01B022823D828688007F7D420780007F2
:100D80002CD57948A169D9B1C0F80090FFF7E8FDEA
:100D9000074604E0FFF7E4FDC01B02280FD8686A8D
:100DA0008007F7D571484FF4FA510068B0FBF1F0B5
:100DB000009000BF0098411E0091FAD20EE080E042
:100DC000C0F80080FFF7CCFD074604E0FFF7C8FD40
:100DD000C01B022875D8686A8007F7D420784007BE
:100DE00060D5E8690027C00008D4E86940F0805069
:100DF000E861E869012700F0805000905C480168D4
:100E0000C90513D40168834641F480710160FFF77E
:100E1000A7FD824606E000BFFFF7A2FDA0EB0A0097
:100E200064284ED8DBF80000C005F5D5E06801283D
:100E30000AD008B1052813D0286A20F001002862E2
:100E4000286A20F0040002E0286A40F001002862CD
:100E5000E06841F2883B98B1FFF782FD82460BE0E3
:100E6000286A40F004002862EEE700BFFFF778FD33
:100E7000A0EB0A0159455AD8286A8007F6D50CE03C
:100E8000FFF76EFD824605E0FFF76AFDA0EB0A0161
:100E900059454CD8286A8007F6D41FB1E86920F07C
:100EA0008050E861E06988B36968C1F38101022973
:100EB00044D00228C6F8608004D0FFF751FD0446F4
:100EC00038E034E0FFF74CFD074604E0FFF748FD4B
:100ED000C01B02282BD828688001F7D4206AB0F5FF
:100EE000803F05D16868A16820F40030084368603D
:100EF000D4E908010843696821F474110843686063
:100F0000C6F86090FFF72CFD044606E025E000BF20
:100F1000FFF726FD001B022809D828688001F7D5B5
:100F20001BE000BFFFF71CFD001B022802D90320B5
:100F3000BDE8F88F28688001F4D40EE00128F7D0CE
:100F40006868226A00F48031914204D1616A00F439
:100F50007010884201D00120EAE70020E8E7000095
:100F60000010024000004242800442424C00002037
:100F70000070004070B5040009D0606A002540B1DF
:100F800025616561A56294F8510040B10CE0012033
:100F900070BD6068B0F5827FF4D0E561F2E784F857
:100FA0005050204600F040F8022084F8510020689C
:100FB000016821F040010160A088218900F482705D
:100FC00001F404410843A18901F400610843217C34
:100FD00001F002010843217D01F001010843218B4A
:100FE00001F400710843217F01F03801084394F8AF
:100FF000201001F080010843218D01F400510843C5
:1010000021680860A069042101EA10402168486055
:101010002068C16921F40061C1616565012084F81F
:101020005100002070BD000030B585B00024009450
:1010300001940294039400681449884223D114480F
:10104000816941F480518161816901F48051049189
:10105000816941F00401816180690E4D00F0040056
:101060000490A02000900220019003200390694684
:101070002846FFF77FFB4020CDE90004694628465B
:101080000294FFF777FB05B030BD0000003001404F
:1010900000100240000801402DE9FF4F81B01D46BD
:1010A000934604464FF001090E9EFFF759FC074690
:1010B00094F851006168012806D0B1F5827F3CD1D7
:1010C000A168C9BB042838D10298002871D0BBF1AF
:1010D000000FFBD0002DF9D094F8500001282CD03F
:1010E0004FF0010A84F850A094F85100042802D06F
:1010F000052084F851004FF00008C4F85480C4F86B
:1011000038B0E587A58702992163E586A586C4F8EE
:101110004080C4F8448020680168490603D401680F
:1011200041F040010160E068B0F5006F606808D0F0
:10113000F0B3012D49D081E0FFE7022005B0BDE802
:10114000F08F08B1012D39D1206B21680088C8606B
:10115000206B801C2063E08E401EE0862EE020681D
:10116000816889070FD5E18E69B1B9F1010F0AD104
:10117000216B0988C160206B801C2063E08E401EBB
:10118000E0864FF0000920688168C9070CD0E18F24
:1011900051B1C068A16B0880A06B801CA063E08F78
:1011A000401EE0874FF00109FFF7DAFBC01B01E0AA
:1011B0000BE067E0B04201D3701C50D1E08E0028F4
:1011C000CDD1E08F0028CAD13EE0206B21680078A5
:1011D0000873206B401C2063E08E401EE0862DE0EB
:1011E0002068816889070FD5E18E69B1B9F1010FD7
:1011F0000AD1216B09780173206B401C2063E08EBB
:10120000401EE0864FF0000920688168C9070CD0B5
:10121000E18F51B1C068A16B0870A06B401CA06346
:10122000E08F401EE0874FF00109FFF799FBC01BDC
:10123000B04202D3701C01D011E086B1E08E0028CC
:10124000CED1E08F0028CBD13A463146204601F07E
:10125000A9F850B12020606584F8508012E084F82D
:1012600051A084F85080032068E7A06818B920686E
:10127000C1688068009084F851A084F85080606D47
:101280000028F1D0012059E710B5401EB0F1807F51
:1012900001D3012010BD4FF0E02460610F216017E1
:1012A00001F00AFC0020A06107202061002010BD91
:1012B0007047704710B590F83C20012A22D00122D7
:1012C00080F83C20CA688C6822F4407222434C6843
:1012D00022F4806222430C6822F4006222430C69EB
:1012E00022F4805222434C6922F400522243C969FD
:1012F000002322F480420A4301684A6480F83C30AB
:10130000002010BD022010BD70B590F83C20012ACD
:1013100026D0012480F83C40022280F83D2003685A
:101320005A689D6822F070060A6832435A600D4B75
:1013300002689A4208D0B2F1804F05D00A4B9A4217
:1013400002D00A4B9A4204D1496825F08003194320
:10135000916080F83D40002180F83C10084670BD47
:10136000022070BD002C0140000400400008004035
:1013700010B5040003D094F83D0010B107E001203F
:1013800010BD002084F83C00204600F01FF8022029
:1013900084F83D00211D206801F0C2F8012084F886
:1013A000460084F83E0084F83F0084F8400084F84A
:1013B000410084F8420084F8430084F8440084F833
:1013C000450084F83D00002010BD000008B500680D
:1013D0000B49884212D10B48816941F40061816157
:1013E0008069002200F4006000900C211920FFF7B2
:1013F00023FBBDE808401920FFF710BB08BD000023
:10140000002C01400010024070B5044690F83C00EA
:101410000025012817D0012684F83C60022084F8BA
:101420003D002068826822F0770222F47F428260C9
:101430000868502838D00DDC20284FD005DC90B348
:10144000102811D14AE0022070BD302846D0402833
:101450000AD13BE060282FD070280DD0B0F5805F16
:1014600003D0B0F5005F12D0012584F83D60002064
:1014700084F83C00284670BDCB68D1E90121206882
:1014800001F097F82068816841F0770109E0CB68A6
:10149000D1E90121206801F08CF82068816841F4CD
:1014A00080418160E1E719E0CA684968206801F07D
:1014B00035F95021206806E0CA684968206801F0C3
:1014C0003EF96021206801F07EF8CEE7CA684968DD
:1014D000206801F023F940212068F4E722680146E2
:1014E0001046F0E770472DE9F04104460068C668F1
:1014F00005694FF00007A90713D5B10711D5F91EEB
:10150000016101202077206880698007204602D091
:10151000FFF7E8FF04E000F0A5F8204600F037F9F7
:101520002777680716D5700714D521686FF0040077
:101530000861022020772068806910F4407F2046EF
:1015400002D0FFF7CFFF04E000F08CF8204600F057
:101550001EF92777280715D5300713D521686FF0B6
:1015600008000861042020772068C06980072046B1
:1015700002D0FFF7B7FF04E000F074F8204600F057
:1015800006F92777E80616D5F00614D521686FF01E
:1015900010000861082020772068C06910F4407F9F
:1015A000204602D0FFF79EFF04E000F05BF82046E3
:1015B00000F0EDF82777E80708D0F00706D021689B
:1015C0006FF001000861204600F068F9280608D590
:1015D000300606D521686FF0800008612046FFF7CD
:1015E00067FE680608D5700606D521686FF04000D2
:1015F0000861204600F082F9A8060AD5B00608D591
:1016000021686FF0200008612046BDE8F041FFF737
:1016100050BEBDE8F081000000B585B0002100910A
:1016200001910291039100680B49884212D10B4845
:10163000816941F0040181618069694600F004001C
:1016400004904FF4E0600090022001900390044861
:10165000FFF790F805B000BD002C014000100240DB
:1016600000080140704770B5044690F83C00002621
:101670000D4601280FD0012084F83C006AB1042AED
:101680001DD0082A2FD00C2A3FD00126002084F834
:101690003C00304670BD022070BD206800F09CFF09
:1016A0002068816941F0080181612068816921F029
:1016B00004018161206881692A69114311E0206871
:1016C00000F0B2FF2068816941F400618161206807
:1016D000816921F480618161206881692A6941EA18
:1016E00002218161D2E7206800F0CAFF2068C16949
:1016F00041F00801C1612068C16921F00401C161A4
:101700002068C1692A69114311E0206800F0E4FFF4
:101710002068C16941F40061C1612068C16921F498
:101720008061C1612068C1692A6941EA0221C16101
:10173000ACE710B5040003D094F83D0010B107E009
:10174000012010BD002084F83C00204600F01EF867
:10175000022084F83D00211D206800F0E1FE0120F8
:1017600084F8460084F83E0084F83F0084F8400086
:1017700084F8410084F8420084F8430084F844006F
:1017800084F8450084F83D00002010BD7047704784
:1017900010B50446022249B104290ED0082913D0FD
:1017A00094F84100012816D0012010BD94F83E00A5
:1017B0000128F9D184F83E200FE094F83F00012879
:1017C000F2D184F83F2008E094F840000128EBD1E2
:1017D00084F8402001E084F841200122206800F0D4
:1017E000DBFE0F492068884203D1426C42F400427C
:1017F00042642068884208D0B0F1804F05D0094982
:10180000884202D00849884204D1816801F007016A
:10181000062903D0016841F001010160002010BDDC
:10182000002C0140000400400008004030B5044690
:101830000D460068002200F0AFFE174B41F2111177
:1018400020688A10984209D1036A0B4206D1036AC4
:10185000134203D1436C23F4004343642068036ABA
:101860000B4206D1016A114203D1016821F0010146
:10187000016001203DB1042D08D0082D09D084F865
:101880004100002030BD84F83E00FAE784F83F00B4
:10189000F7E784F84000F4E7002C014070B51349E5
:1018A00006460868124C10B9206800281CD0086849
:1018B000012550B10868401E0860086828B9002159
:1018C0003046FFF7B3FF0B480570206800280BD0A7
:1018D0002068401E20602068002805D10421304681
:1018E000FFF7A4FF0448057070BD00000C00002045
:1018F000100000200500002006000020704718B5E9
:10190000034690F84200202801D0022018BD61B1A2
:101910005AB10120186300205863184601F00EF8F0
:101920000028F3D1196B012901D0012018BD1968D5
:101930000A684968009119680C3151E8002F42F09B
:10194000100241E80024002CF5D118BD0448054AD6
:1019500001600020505404490120087070470000C5
:1019600020000020B4040020040000207047000084
:10197000F8B5016804460868CA684B6910F00F0F93
:101980004FF0000559D003F0010602F49077374379
:1019900065D0C10705D0D10503D5616C41F00101C7
:1019A0006164410705D5D90703D0616C41F002019C
:1019B0006164810705D5D90703D0616C41F004014A
:1019C0006164010707D502F02001314303D0616C47
:1019D00041F008016164616C00293AD0800604D5A9
:1019E000900602D5204600F0EBFE20684069616C4D
:1019F000C0F38010090700D460B3204600F0B9FEA0
:101A000020684069400621D52068143050E8001F46
:101A100021F0400140E80012002AF5D1E06BA8B1A6
:101A20006D494163E06BFEF747FE002811D0E06B83
:101A3000416B01B0BDE8F040084783060FD593061F
:101A40000DD52046BDE8F84000F0BABE2046FFF7AD
:101A50008DFFF8BD2046FFF789FF6564F8BD266B52
:101A60002023012E7CD1C6067AD5D60678D5086803
:101A70004868009048694FF00206400640D5E16B87
:101A8000086840680004000CE8D0A28D8242E5D9C5
:101A9000E085886920282DD020680C3050E8001F90
:101AA00021F4807140E80012002AF5D1206814303A
:101AB00050E8001F21F0010140E80012002AF5D192
:101AC0002068143050E8001F21F0400140E8001267
:101AD000002AF5D184F84230256320680C3050E8A4
:101AE000001F21F0100140E80012002AF5D1E06B40
:101AF000FEF7BEFD6663A08DE18D401A81B22AE03B
:101B0000A08DE18D401A81B2E08D0028A6D0002979
:101B1000A4D022680C3252E8000F20F4907042E802
:101B20000007002FF5D12068143050E8002F22F074
:101B3000010240E80027002FF5D184F842302563E8
:101B400020680C3050E8002F22F0100240E80023FB
:101B5000002BF5D166632046FFF7F8FEF8BDFFE7DE
:101B600005062BD5150629D594F841002128F5D175
:101B7000A068B0F5805F01D12069B0B1206A411C36
:101B80002162216800784860E08C401E0004000C4F
:101B9000E084E3D12068C16821F08001C160206841
:101BA000C16841F04001C160D8E7206A0088C0F3F5
:101BB00008004860206A801C2062E5E74006CDD519
:101BC0005006CBD5CA68204622F04002CA6084F88D
:101BD000413000F0CEF8C1E76327000870B504007B
:101BE00004D094F84100002510B106E0012070BD3A
:101BF00084F84050204600F023F8242084F8410067
:101C00002068C16821F40051C160204600F03AFE0E
:101C10002068016921F4904101612068416921F047
:101C20002A0141612068C16841F40051C1606564C6
:101C3000202084F8410084F842006563002070BDD4
:101C400030B585B000240094019402940394006898
:101C50001B49884232D11B48816941F4804181612E
:101C6000816901F480410491816941F00801816139
:101C70008069154D00F0080004904020009002207B
:101C800001900320039069462846FEF773FD8020EB
:101C9000CDE90004694628460294FEF76BFD0B4827
:101CA000416841F0E06141F00401416000220421FB
:101CB0002520FEF7C1FE2520FEF7B0FE05B030BDA1
:101CC0000038014000100240000C014000000140BB
:101CD00070472DE9F843044690F8410098461646AF
:101CE0000D46202802D00220BDE8F88385B17EB1E0
:101CF00000206064212084F84100FEF731FEA684B4
:101D00008146E684A0682027B0F5805F02D003E01A
:101D10000120E9E7206910B12E4600250EE00026DB
:101D20000CE08021204600F024FEA8B9C6B116F8C8
:101D3000010B21684860E08C401EE084E08C4B463B
:101D40004FF00002CDF800800028EAD14FF04001AA
:101D5000204600F00EFE40B184F841700320C3E736
:101D600035F8020BC0F30800E3E784F84170002067
:101D7000BAE77047FEE7000010B504490448FEF7D3
:101D800054FC0249491E087010BD000039000020B3
:101D9000240000202DE9F04186B000242048009462
:101DA000019402940394816941F020018161816969
:101DB00001F020010491816941F004018161816990
:101DC00001F004010491816941F008018161806999
:101DD000144F00F008000490002210213846FEF74E
:101DE000B9FDDFF84480002238214046FEF7B2FDFD
:101DF000102001250226CDE90005CDE902466946FD
:101E00003846FEF7B7FC3820CDE90005CDE902469B
:101E100069464046FEF7AEFC06B0BDE8F081000022
:101E20000010024000080140000C0140104810B5AD
:101E30000E4901604FF48271416000218160C160F0
:101E40004FF400720161C0E905120822C0E90721C0
:101E5000416281620A21C162FFF78CF8002803D039
:101E6000BDE81040FEF7DFBB10BD000000300140B0
:101E7000A80A002010B596B000240F941094119475
:101E8000129413941C2168461494FEF7DAFA202168
:101E900007A8FEF7D6FA32483049016041F61F41E3
:101EA000C0E901143B21C0E9031444618461FFF7D8
:101EB0005FFA08B1FEF7B7FB4FF480500F900FA9FF
:101EC0002748FFF7A1FA08B1FEF7ADFB2448FFF75A
:101ED00030FC08B1FEF7A7FB139413A92048149413
:101EE000FFF712FA08B1FEF79EFB60200090282051
:101EF000CDE901040394049405940022694618482E
:101F00000694FFF7B0FB08B1FEF78DFB042269468B
:101F10001348FFF7A8FB08B1FEF785FB9620019058
:101F2000082269460E48FFF79EFB08B1FEF77BFBCF
:101F30000794089409944FF400500A94CDE90B409B
:101F400007A907480E94FFF7B5F908B1FEF76BFB38
:101F50000348FFF761FB16B010BD0000002C0140E4
:101F6000000B00200C4810B50A4901604FF4E13124
:101F70004160002181600C22C160C0E904128161CE
:101F8000C161FFF72BFE002803D0BDE81040FEF72B
:101F90004ABB10BD00380140480B0020FEE7FEE7B9
:101FA00070470000044B20B1002210211846FEF7B4
:101FB000D1BC0122F9E700000008014070B50546D8
:101FC00001220021092000F0B5F910F0FF0404D12E
:101FD0001021284600F078F804460020FFF7E2FFC1
:101FE0000CB1012070BD002070BD1FB56846FFF721
:101FF000E5FF10B1002004B010BD9DF800100120D5
:10200000B0EB911F09D19DF808209DF8091000EB55
:102010000220084400048009EDE79DF805009DF8C2
:102020000A1000F00F0000EBD1109DF809109DF888
:10203000072001F0030100EB41019DF80800800931
:1020400000EB82009DF8062002F0030200EB8220E4
:10205000401CC91F8840CEE72DE9F04106461948CB
:1020600015464078062800D049024FF40077012D2C
:102070004FF001021AD0122000F05CF939463046C8
:1020800000F022F86D1E044606F5007615F0FF05F7
:1020900001D0002CF2D0012200210C2000F04AF9DE
:1020A0000020FFF77FFF2046BDE8F081112000F0FF
:1020B00041F910F0FF04F3D13946304600F004F83E
:1020C0000446EDE70000002070B505460C460120EF
:1020D000FFF768FFFF2001F0E7FE06466420FEF7E9
:1020E00037FBFE2EF6D103E001F0DEFE05F8010B12
:1020F000641EA4B24FF0FF00F6D201F0D5FEFF201F
:1021000001F0D2FE002070BD70B50C460546FF20E0
:1021100001F0CAFEFF28FAD1204601F0C5FEFD2CD1
:1021200018D000244FF40076285D01F0BDFE641C39
:10213000A4B2B442F8D3FF2001F0B6FEFF2001F0B4
:10214000B3FEFF2001F0B0FE00F01F00052801D013
:10215000022070BD002070BD70B506461F481546B0
:102160000C464078062800D04C02012D14D00128DE
:1021700009D001220021372000F0DCF80122294695
:10218000172000F0D7F801222146192000F0D2F8DC
:1021900010F0FF040BD01BE001222146182000F0B4
:1021A000C9F810F0FF0413D1FE2130460DE0FC21E8
:1021B0003046FFF7A9FF6D1E06F5007615F0FF0506
:1021C00001D00028F3D0FD210020FFF79DFF044639
:1021D0000020FFF7E7FE204670BD00000000002051
:1021E0002DE9FC41002700973820019700F050F9B5
:1021F0000020FFF7D7FE4E4D0024287801F054FE52
:10220000641CA4B20A2CF8D300219522084600F0E1
:1022100091F8C0B20128F7D16F7087224FF4D571C1
:10222000082000F087F8C0B2012873D100246E4660
:10223000287801F039FE3055641CE4B2042CF7D341
:102240009DF802004FF6FE74012803D19DF80300AB
:10225000AA281FD001220021372000F06BF80122AC
:102260000021292000F066F8C0B201283DD80220E4
:10227000687001220021372000F05CF80122002163
:10228000292000F057F810F0FF0F3BD0641EA4B2D5
:10229000EFD237E04FF0804701220021372000F0D5
:1022A00049F801223946292000F044F810F0FF0FC8
:1022B00002D0641EA4B2EFD2B4B1012200213A20B0
:1022C00000F038F880B90024FF2001F0EDFD305512
:1022D000641CE4B2042CF7D39DF80000400601D53D
:1022E000062000E00420687014E0012068700122DC
:1022F0000021104600F01EF810F0FF0F02D0641EFF
:10230000A4B2F4D22CB101225102102000F012F834
:1023100000B16F700020FFF745FE082000F0B8F80C
:10232000687810B10020BDE8FC810120FBE70000C7
:10233000000000202DE9F041054617460C4600201C
:10234000FFF730FE1420FEF703FA0120FFF72AFE04
:10235000134E307801F0A8FDFF28FAD145F0400077
:1023600001F0A2FD200E01F09FFDC4F3074001F033
:102370009BFDC4F3072001F097FDE0B201F094FD4E
:10238000384601F091FD0C2D02D1307801F08CFD22
:10239000FF2001F089FD0106FAD4BDE8F0810000BC
:1023A00000000020F8B515460E460B460092044684
:1023B0000122022100F010F840B9334600228021AA
:1023C0002046009500F008F8002804D0606D40F029
:1023D000200060650320F8BD2DE9F8431E469146B4
:1023E00088460446089DFEF7BBFA401B351AFEF7E7
:1023F000B7FA074625480068C0F3CB30684338E099
:10240000701C37D0FEF7ACFAC01BA84203D215B13E
:10241000009860B32CE02068416821F0E001416041
:102420006068B0F5827F0BD1A068B0F5004F02D094
:10243000B0F5806F04D12068016821F0400101608F
:10244000A06AB0F5005F09D12068016821F400514D
:1024500001602068016841F400510160012084F8A6
:102460005100002084F850000320BDE8F8830025C7
:10247000401E00902068816838EA010004D00021E5
:102480004945BDD10020F0E70121F9E74C000020CB
:1024900005490A68136823F03803136009680A685D
:1024A00002430A6070470000A80A00207047FEF748
:1024B0005DBA30B58FB028216846FDF7C2FF142100
:1024C0000AA8FDF7BEFF01210804CDE90010002491
:1024D000029402250491CDE907504FF4E0100990D1
:1024E0006846FEF7B7FB08B172B6FEE70F20CDE9EC
:1024F0000A054FF48060CDE90C4002210AA80E9431
:10250000FEF7CCFA002801D072B6FEE70FB030BD5E
:10251000704700000148FEF7E6BF0000000B0020F6
:10252000F0B50268194B1A4C1A4D4FF0804798428B
:1025300005D0B84203D0A04201D0A84203D122F076
:1025400070064A683243984205D0B84203D0A04290
:1025500001D0A84203D122F44074CA6822434C69D6
:1025600022F08002224302608A68C2620A688262A4
:10257000984201D109690163012141610169C907DB
:1025800003D0016921F001010161F0BD002C01407F
:10259000000400400008004010B501F01F030121B5
:1025A000046A99408C430462016A9A4011430162B3
:1025B00010BD10B5846842EA032224F47F440A4324
:1025C0002243826010BD826822F070020A4342F00A
:1025D000070181607047000030B5036A026A22F08B
:1025E000010202624268846924F073050C682C437E
:1025F00023F002058B682B430A4DA8420BD123F030
:102600000805CB6822F440722B434D6923F0040384
:1026100015438A692A4342608461496841630362C1
:1026200030BD0000002C014030B5026A036A23F07F
:1026300010030362436884690D6824F4E64444EAA5
:1026400005248D6822F0200242EA05120B4DA842B3
:102650000ED1CD6822F0800242EA05124D6923F4C2
:10266000406343EA85038D6922F0400243EA850313
:102670004360846149688163026230BD002C01407F
:1026800030B5036A026A22F4807202624268C46949
:1026900023F4007324F073050C682C438D6843EA1F
:1026A00005230C4DA8420ED1CD6823F4006343EA04
:1026B00005234D6922F4405242EA05128D6923F444
:1026C000806342EA05124260C4614968C1630362E3
:1026D00030BD0000002C014030B5046A026A22F4CB
:1026E000805202624268C3690D6823F4E64343EAFC
:1026F00005238D6824F4005444EA0534064DA842AD
:1027000004D14D6922F4804242EA85124260C361DD
:1027100049680164046230BD002C014010B5036AB1
:10272000046A24F001040462846924F0F00444EA99
:10273000021423F00A020A438461026210BD10B53C
:10274000036A046A24F010040462846923F0A0037D
:1027500024F4704444EA023243EA011182610162C6
:1027600010BD10B5406A0021C185C184FFF7FEF895
:1027700010BD01680C3151E8002F22F4907241E83D
:102780000023002BF5D10168143151E8002F22F00D
:10279000010241E80023002BF5D1016B012909D189
:1027A00001680C3151E8002F22F0100241E80023AB
:1027B000002BF5D1202180F84210002101637047E1
:1027C00008B590F84210222901D0022008BD826885
:1027D0004FF480539A4201D1016921B1816A9A4232
:1027E0001BD04AB10AE00268816A5268C2F308024B
:1027F0000A80816A891C08E0026972B10268526825
:1028000002F07F020A70816A491C8162C18D491EF3
:102810000904090CC18503D01BE002685268F1E786
:102820000168CA6822F02002CA600168CA6822F4FE
:102830008072CA6001684A6922F001024A6120215F
:1028400080F8421000214163026B012A03D0FFF798
:102850003FFA002008BD016301680C3151E8002FE8
:1028600022F0100241E80023002BF5D101680A682C
:10287000D20602D50A6849680091818DFFF766F893
:10288000E7E7000070B5044600680169E26821F4DA
:102890004051114301612169A068084361690843FF
:1028A0002168CA6841F20C639A430243CA602068F7
:1028B0004169A26921F44071114341611E492068B8
:1028C000884202D1FEF790F901E0FEF77DF900EBB6
:1028D000C00101EB0012606864218000B2FBF0F3DC
:1028E000B3FBF1F36FF018067343B2FBF0F5B2FBE4
:1028F000F0F605EB8305322303EB0515B5FBF1F587
:10290000B6FBF1F605F0F00505EB0615B2FBF0F6A7
:10291000B2FBF0F0B0FBF1F06FF01802504306EBA1
:10292000800003EB0010B0FBF1F0216800F00F0015
:102930002844886070BD00000038014081628285B3
:10294000C28500214164222180F84210016921B131
:102950000168CA6842F48072CA6001684A6942F03C
:1029600001024A610068C16841F02001C160002095
:1029700070472DE9F843984617460D460446089ED1
:1029800024E0701C22D0FDF7EBFFA0EB0800B04262
:102990001AD8CEB12068C168490717D5802D15D047
:1029A000402D13D00168C94309070FD401680025E1
:1029B000406800902046FFF7DCFE0820606484F841
:1029C00040500120BDE8F8830320FBE72068006841
:1029D00035EA000004D00020B842D2D00020F1E750
:1029E0000120F9E70148FEF7C3BF0000480B0020B3
:1029F00010B5FFF7F5FB002809D03820FFF748FD98
:102A0000FF2001F051FA0820FFF742FD012010BD20
:102A100010B5144641B101291DD0022914D0032953
:102A200015D00424204610BD0120FFF7BBFA142066
:102A3000FDF78EFEFF2001F037FAFF28F7D10024C2
:102A40002046FFF7AFFAEDE74FF4007000E00820F2
:102A500010800024E6E7FFF7C8FA2060F9E770B5B8
:102A600014460D460BB148B901E0042070BDDAB23E
:102A700021462846FFF7F0FA0028F7D0012070BD64
:102A8000002804D0012803D0022801D0012070477B
:102A90000020704770B514460D460BB148B901E0EF
:102AA000042070BDDAB221462846FFF755FB002806
:102AB000F7D0012070BDFEE70907090E002804DBEE
:102AC00000F1E02080F80014704700F00F0000F1E2
:102AD000E02080F8141D704710B50446002084F8EB
:102AE0000402401EC4F82C02204601F00FF908B180
:102AF000032010BDB4F8FE01A0F52A41553901D0DC
:102B0000022010BD94F83600B4F8371040EA0121D5
:102B10000848B0EB012F08D094F85210B4F85320B5
:102B200041EA0221B0EB012F01D1002010BD0120AC
:102B300010BD000000464154F0B50022184B144669
:102B400002EB420653F8265085B1D0F80072BD4220
:102B50000DD103EB8605D0F808626F68B74206D145
:102B60002D89B0F80662B54204D000E00124521C61
:102B7000022AE5D3022A01D079B904E05CB902291E
:102B800009D01220F0BD02EB420003EB8000408927
:102B9000B0F5807F01D00020F0BD1020F0BD000016
:102BA000900B002030B50021064A0C4601EB410392
:102BB00052F82350854201D142F82340491C022992
:102BC000F4D330BD900B0020D0F82422D0F80002BE
:102BD000490A90F80202B1FBF0F0121D02CA19B1C5
:102BE000884203D3401AF8E7002070471168084470
:102BF0007047D0F81422891E921E8A4201D8002004
:102C00007047D0F8282290F8020201FB002070479C
:102C10002DE9F0410F00054606D000F011FE022814
:102C20000BD20120BDE8F081D5F80C621EB1D5F8B9
:102C30001402B04208D8012606E0411CF2D0D5F8B3
:102C400014128142EED83E463446D5F81402641C74
:102C5000A04202D80224022E0AD32146284600F0C0
:102C6000EFFD38B1411CDDD00128DBD0B442ECD1FE
:102C70000020D7E76FF070422146284601F061F846
:102C800030B957B122463946284601F05AF820B1EA
:102C9000012812D001242046C4E7C5F80C42D5F81B
:102CA0001002411CF7D0401EC5F8100295F805022D
:102CB00040F0010085F80502EDE74FF0FF34EAE748
:102CC0002DE9F04789460C6800E0641C21782F2923
:102CD000FBD05C29F9D0D0F818520B2220212846CD
:102CE00001F00DF8002001460B460826E25C5B1C53
:102CF000202A35D92F2A33D05C2A31D02E2A01D070
:102D0000B04208D3082E38D12E2A36D108200B26FF
:102D10008906090EEAE7802A05D3244F41F0030112
:102D20003A4412F8802C22A700E07F1C97F800C0DC
:102D3000BCF1000F02D09445F7D11EE0A2F141078B
:102D4000192F02D841F0020107E0A2F16107192F03
:102D500003D8203A41F00101D2B22A54401CC5E701
:102D60001C44C9F80040202A01D8042200E00022B7
:102D700018B12878E52803D004E00620BDE8F087E4
:102D800005202870082E01D18806010E01F00300ED
:102D9000012801D142F01002C1F38100012801D1C4
:102DA00042F00802EA720020E8E70000E64000086E
:102DB000222A2B2C3A3B3C3D3E3F5B5D7C7F000052
:102DC000401E022815D20C4B00EB400203EB82019F
:102DD0004889B0F5807F05D008B1401E80B2488197
:102DE00010B104E00020FAE7002043F822000020A0
:102DF0007047022070470000900B00202DE9F04141
:102E0000B0F806620446761C30040F46000C37D03A
:102E1000D4F8100298B3310773D1401CC4F81002E3
:102E2000D4F80C12D4F8000231B190F80222521EEC
:102E300012EA161F05D064E0B0F80802B0421FD9AC
:102E40005FE000F0FDFC054601281ED9681C3AD061
:102E5000D4F80002D0F81412A94249D87FB1D4F8AE
:102E60000C12FFF7D5FE05000DD0012D0DD0681C0A
:102E700029D0D4F8000201F08AF820BB07E0FFE770
:102E80000420BDE8F0810720FBE70220F9E74FF4BA
:102E900000720021D4F8000200F031FF2946D4F876
:102EA0000002FFF7A6FED4F8001200274FF0010839
:102EB000C1F82C0211E000BF80F80482D4F80002AF
:102EC00001F065F808B10120DBE7D4F80002D0F882
:102ED0002C12491C7F1CC0F82C12D4F8000290F868
:102EE0000212B942E8D8D0F82C12C91BC0F82C1233
:102EF000C4F80C522946D4F80002FFF77AFEC4F851
:102F00001002A4F80662D4F8000206F00F0100EBEC
:102F10004110C4F814020020B3E770B50446002144
:102F200000F036F810E0D4F81012D4F8000200F0E7
:102F3000EDFE58B9D4F814020078E52809D040B164
:102F400001212046FFF75AFF0028ECD0042809D0C1
:102F500009E0D4F81012D4F8000200F0D7FE050002
:102F600003D013E00720054610E0D4F81402202215
:102F7000002104F5007400F0C2FED4E905010B2223
:102F800000F0B4FE2168012081F80402284670BDDB
:102F900070B5A0F80612D0F808320D460446012B91
:102FA00040D0D4F80002D0F8141299423AD933B97B
:102FB00090F80012032906D1D0F824321BB190F802
:102FC0000202060114E0B0F80812A9422AD9D0F88A
:102FD000240214E000F034FC0346401C20D0022BF5
:102FE00020D3D4F80002D0F8140298421AD9AD1BAD
:102FF000D4F80002B5421946ECD2FFF7FAFDC4F846
:103000000C3278B100EB1510C4F81002D4F80002AD
:1030100005F00F0100EB4110C4F81402002070BD50
:10302000012070BD022070BD084910B50B5C002264
:1030300053B901220A540A1801EB8000127A406841
:103040000168104688470246104610BDA80B0020B4
:1030500030B4054C231804EB80001B7A40680469E7
:103060001846A44630BC6047A80B002030B4054D7C
:103070002C1805EB8000247A406885682046AC4611
:1030800030BC6047A80B0020044A111802EB8000F6
:10309000097A40684268084610470000A80B0020E3
:1030A00030B4054D2C1805EB8000247A4068C568C3
:1030B0002046AC4630BC6047A80B002010B5044643
:1030C00000F0D6F900280DD1204600F090FF00282E
:1030D00008D1D4F82802FFF773FE002802D100219E
:1030E000C4F8001210BD00002DE9F74181B09046F0
:1030F00002980090684600F006FC040003D50B20FF
:1031000004B0BDE8F0810E4E002756F8245025B1DA
:103110002846FFF747FD85F800720198002801D086
:1031200080F8007246F8240002D0B8F1010F01D0F7
:103130000020E5E7002202A901A800F0F5F9DFE789
:10314000540000202DE9F747ADF50B7D06000ED0A9
:103150004FF0000802F01F0727F001028CA980A899
:10316000C6F8008200F0E0F9040005D0B4E00920C0
:103170000DF50E7DBDE8F08788A8869068468C998D
:1031800000F0FEFA859D04000BD11DB1780803D034
:10319000012102E0062404E000216846FFF7CCFC90
:1031A000044617F01C0F5FD04FF0010AD4B1042C75
:1031B00013D100204A4902E0401C022805D200EB4E
:1031C000400251F82220002AF6D1022804D0684695
:1031D000FFF7A3FE044600E01224859D47F0080790
:1031E00054B179E0E87A10F0110F01D0072473E0B0
:1031F000780701D508246FE0380743D500F081FB3C
:10320000A873010AE973010C2974000E687485F82B
:103210000B8085F81C8085F81D8085F81E8085F858
:103220001F802946809800F0DDFB8146002128465A
:1032300000F04AFE8099B9F1000F81F804A21FD076
:1032400080984946D0F82CA200F0F7FD040043D145
:103250008099A9F10100C1F80C025146809800F054
:1032600055FD04000AD037E0B4BBE87AC10601D5A9
:10327000042431E0B90701D5C007B7D1380701D51B
:1032800047F020078098D0F82C02C6E98705780817
:1032900001D0012100E00021684600F053FBC6F890
:1032A0002802D8B186F8067286F807824746294672
:1032B00006F50076809800F095FB3061287FD5F800
:1032C0001D1040EA0120C6E90270B761776280985C
:1032D0003060B0F80602B080204649E70224FBE7E0
:1032E000900B00202DE9F84F88460021994615469D
:1032F0000446196000F07BFE002812D194F8070202
:1033000000280ED194F80602C00709D0D4E9820142
:10331000081A01274FF0020A854200D90546A2E0AB
:103320000720BDE8F88F00BFD4F80812C8057CD18B
:10333000D4F8000290F80222521E02EA512212F042
:10334000FF0614D131B1D4F8242232B12046FFF760
:103350003BFC06E0D4F8100203E0D4F8141200F0AD
:103360006FFA022823D3411C5BD0C4F81402D4F8AE
:103370001412D4F80002FFF73CFCC0B130440090B6
:10338000680A5FEA000B2AD0D4F8001206EB0B02A1
:1033900091F80202824201D9A0EB060B91F80102DA
:1033A0005B464146009AFFF761FED0BB03E084F81C
:1033B00007A20220B5E794F8060240060CD5D4F81F
:1033C00018120098081A584506D208EB40204FF40E
:1033D0000072214600F08AFC4FEA4B2637E0D4F811
:1033E00018220098824221D094F8060240060ED599
:1033F000D4F800020123214690F80102FFF750FEA5
:1034000078B994F8060220F0400084F80602D4F857
:1034100000020123214690F80102009AFFF726FEE0
:1034200020B184F8077201207BE702E00098C4F81D
:103430001802B4F80802C0F30800C0F50076AE42E6
:1034400000D92E4601193246404600F04FFCD4F810
:103450000802B0443044C4F80802D9F800008119C9
:10346000AD1BC9F80010002D7FF45EAF002058E7B7
:1034700070B5044600F0BBFD002811D194F8061287
:103480008A060DD5480612D5D4F80002012321463C
:1034900090F80102D4F81822FFF702FE08B10120CB
:1034A00070BD94F8060220F0400084F80602D4F8BB
:1034B0001C12D4F8000200F029FC0028F0D1D4F846
:1034C0002052E87A40F02000E87294F80C02287745
:1034D000B4F80C02000A6877D4F80C02000CA87744
:1034E000D4F80C02000EE877D4F81012284604F540
:1034F000007400F0E9FC00F004FAA875010AE9750F
:10350000010C2976000E68760020A874E874A07972
:1035100020F02000A0712168012081F804022068B9
:10352000BDE8704000F0D8BC2DE9FF474FF000091E
:103530000746C0F800901646084600F0E4F905007A
:1035400003D50B2004B0BDE8F0878A4850F8254029
:10355000A4B13C6094F8000228B194F80102FFF78E
:1035600093FDC1070CD084F80092E8B284F8010200
:10357000FFF75AFDC10708D00320E3E70C20E1E77D
:103580000EB1400704D40020DCE71EB1400701D58E
:103590000A20D7E7002529462046FFF79DFA012893
:1035A00023D100204FEA0D0704EB001191F8C2214E
:1035B00001F5DF712AB10A7AD1F8091042EA012136
:1035C00000E0002147F82010401C0428ECD300261E
:1035D00057F826502DB129462046FFF77DFA08B945
:1035E00009E00220761C042EF2D3032801D0E0BBB0
:1035F00001E00120A6E7B4F80B00B0F5007F60D130
:10360000E28A2AB994F82400D4F8251040EA01226D
:10361000C4F81822217C84F80312012901D0022960
:103620004FD1607B514384F80202F0B1431E18422F
:1036300047D1B4F81130A4F808321E0741D1B4F8CC
:1036400013602EB994F82060D4F8217046EA07265A
:10365000B4F80EC0BCF1000F33D00CEB010707EB40
:103660001317BE422DD3F61B00E02AE0B6FBF0F0A4
:1036700038B3012640F6F678404500D302264FF6CF
:10368000F678404500D30326801C2F44C4F82872E6
:10369000AC44C4F81402C4E9875C032E13D083B190
:1036A0006144C4F82412022E19D000F0010100EB8D
:1036B000400001EB500000BF00F2FF10B2EB502FB2
:1036C0000FD20D203EE7002BFBD194F82C10D4F83C
:1036D0002D30800041EA0321C4F82412ECE74000B9
:1036E000EAE74FF0FF30C4F81002C4F80C02802063
:1036F00084F80502032E30D1208E01282DD12046DA
:10370000691C00F003FB40BB84F80592B4F8FE018D
:10371000A0F52A41553920D12078D4F8011040EA8B
:1037200001201549884218D194F8E401D4F8E51134
:1037300040EA0120114988420FD194F8E801D4F8F9
:10374000E91140EA0120C4F8100294F8EC01D4F821
:10375000ED1140EA0120C4F80C02064984F8006229
:10376000091F0888401C0880A4F806022046FFF7BD
:1037700019FA08E754000020525261417272416107
:1037800073B50446019908782F2801D05C2801D12F
:10379000491C01910025C4F808520198007820289E
:1037A00006D200212046FFF7F3FBC4F814527CBD7B
:1037B00001A92046FFF784FA0028F8D1002120460D
:1037C000FFF7E6FB20BB00BFD4F81012D4F80002CC
:1037D00000F09CFAE0B9D4F814120A7832B1CA7A2F
:1037E00012070FD40A23D4F8182203E004200FE0B4
:1037F0005B1E06D311F8015B12F8016BAD1BF7D00D
:1038000000E02DB100212046FFF7F8FA0028DBD0B8
:10381000D4F81812C97A28B10428C8D14907C6D4E7
:1038200005207CBD4907FCD4D4F81412C87AC00620
:10383000F6D5D4F8000200F0D5F8C4F80802B7E7CE
:103840002DE9F0410D46044602290DD3D4F81402A7
:10385000A84209D994F800024FF0FF36012807D09A
:1038600002282AD0032836D001263046BDE8F08150
:10387000D4F8200205EB550700EB5721204600F055
:1038800045FA0028F1D1C7F308007F1C14F8008026
:10389000D4F8200200EB5721204600F037FA002828
:1038A000E3D1C7F30800215C48EA0120E90701D011
:1038B0000609DAE7C0F30B06D7E7D4F8200200EBDD
:1038C0001521204600F022FA0028CED1E8B204EB00
:1038D00040000688C9E7D4F8200200EBD511204645
:1038E00000F014FA0028C0D140F2FF1000EA850071
:1038F00020440178D0F8010041EA002020F0704611
:10390000B3E70020704710B504464FF0FF3022683F
:10391000002A13D0114600E0491C0B78212B0ED34E
:103920003A2BF9D112F8013B303B0A2B06D28A42DE
:1039300004D1002B02D1491C1846216010BD002083
:1039400010BD0000F0B50346254AD3F80042002020
:1039500000EB400552F82560A6420BD102EB85052D
:10396000D3F808626F68B74204D12D89B3F80662B4
:10397000B54202D0401C0228EAD302281AD1002006
:1039800002E0401C022805D200EB400552F8255009
:10399000002DF6D1022815D000EB400542F8254055
:1039A00002EB8504D3F808626660B3F8063223811F
:1039B00000236381002900EB400102EB810149896A
:1039C00002D019B10020F0BD491C01E04FF4807114
:1039D00000EB400302EB8302401C5181F0BD00006C
:1039E000900B00200246488B92F80022032A02D155
:1039F000898A40EA0140704708B5FCF7BFFFFEF72F
:103A000058FDFEF7C7F9FEF711FAFEF733FAFEF795
:103A1000A9FAFEF7B1F97C480068C16821F00101FC
:103A2000C160002208217948FCF794FF012278A1A7
:103A30007848FFF759FB784940F2FF3A4FF0000B06
:103A4000C8704FF0FF3988464D464B46102273A18F
:103A50007748FEF73EF95746524676497448FDF7D7
:103A60004EFF444620780028FCD05E4684F800B023
:103A70000C22704970A0FCF799FCC0B1A08BA9463C
:103A800082B22B466B496A48FEF723F96949012245
:103A9000A1F50B70FFF756FBE070F0B104284B4620
:103AA00016D0242268A16248FEF713F9FEE7082128
:103AB0005548FDF76DFE3A465E495D48FDF71FFF2C
:103AC0000A225C496AA0FCF771FC0028F3D1BBE72D
:103AD0000E226AA15648FEF7FCF84F4B0422183319
:103AE000A3F114016948FFF7FDFB4B4D2D1D2A88FA
:103AF000DE2A02D86888DE280CD96B8864A14D487C
:103B0000FCF76AFB82B2A0614B464A494848FEF77F
:103B1000E0F899E71346474A009065A102F58060F6
:103B2000FCF75AFB82B2A0614B466B494048FEF756
:103B3000D0F83A463F493E48FDF7E1FE207800289C
:103B4000FCD0A04626703B4800785928BFD14B4690
:103B50000E2262A13648FEF7BCF82B480068C16807
:103B600041F00101C160002208212848FCF7F2FE63
:103B7000002632E0284B2A88183357494348FFF77C
:103B8000B1FB0024544F0EE0385D18B108211E48E7
:103B9000FDF7FEFD0021012000F040FA08211A483F
:103BA000FDF744FE641C2888A042EDDC84B20DE0E1
:103BB000385D18B108211448FDF7EAFD01210846D7
:103BC00000F02CFA08211048FDF730FE641EEFD5F6
:103BD0000021012000F04AFA761C6888B042C9DC56
:103BE0000121D8F8140000F041FA07480068C168C4
:103BF00021F00101C160012208210448FCF7AAFE5E
:103C00002248FFF75BFA1FE7000B0020000C014081
:103C1000000000005800002004000020454E5445DC
:103C2000522046494C45204E414D450A00000000B7
:103C3000480B0020B40400206D6F646966795F6CE6
:103C40006967687400000000534F4D45204552528B
:103C50004F522C20636865636B206C696E6B207417
:103C600068656E20726573746172740A00000000EA
:103C7000717569745F6C6967687400004E6F2073BA
:103C80007563682066696C65210A0000880200205F
:103C90002568642025686420746F6F206269672C32
:103CA0002063616E2774207072696E740A000000D0
:103CB000257320776964746820616E642068656983
:103CC000676874203A20256864202568640D0A5BC3
:103CD000592F4E5D2A0D0A00B40800204C45542788
:103CE0005320474F212121210D0A000004E000BF8D
:103CF00011F8013B00F8013B521EF9D27047C9B2DE
:103D000001E000F8011B521EFBD2704770B505465A
:103D1000D0F82C020C460026A04210D0284600F015
:103D200036F906000BD195F80102012322462946F7
:103D3000FFF79CF908B1741E0126C5F82C423046E5
:103D400070BD2DE9F04717460D460446022903D3FE
:103D5000D4F81402A84202D80220BDE8F08794F8F3
:103D6000001207F0FF084FF00109012920D00229B5
:103D700050D00329F0D1D4F8200200EBD511204611
:103D8000FFF7C4FF0028E8D140F2FF1101EA8501E6
:103D90000A194FF07043D2F8011003EA01213943A8
:103DA00011700B0A53700B0C9370090ED17041E027
:103DB000D4F8200205EB550600EB56212046FFF70C
:103DC000A5FF0028C9D1C6F30800761C2044E907E6
:103DD00003D0017868F31F1100E03946017084F8C0
:103DE0000492D4F8200200EB56212046FFF78EFF04
:103DF0000028B2D1C6F308012144EA0702D0C7F374
:103E0000071205E00A78C7F3032302F0F0021A4311
:103E10000A700FE0D4F8200200EB15212046FFF7CE
:103E200075FF002899D1E9B204EB41013A0A81F803
:103E300000804A7084F804928FE72DE9F0410F4624
:103E40000646022917D3D6F81402B84213D9002522
:103E500023E039463046FFF7F3FC040021D0012C63
:103E600009D0601C09D0002239463046FFF769FFAF
:103E7000050016D103E0022513E0012511E0D6F874
:103E80001002411C08D0401CC6F8100296F805022A
:103E900040F0010086F805022746D6F81402B84221
:103EA000D7D82846BDE8F08101B582B064200090E3
:103EB000012301AA02A90348FDF7EEF89DF80400CA
:103EC0000EBD0000A80A002081760A0AC2760A0CFC
:103ED0000275090E4175704770B5044600F057F839
:103EE000050052D194F80002032846D194F8050247
:103EF000012842D1420200212046FFF700FF552051
:103F000084F8FE01AA2084F8FF015220207060701E
:103F10006120A0704121E170722284F8E42184F8CC
:103F2000E52184F8E61184F8E701D4F8100284F85A
:103F3000E801010A84F8E911010C84F8EA11000E85
:103F400084F8EB01D4F80C0284F8EC01010A84F83F
:103F5000ED11010C84F8EE11000E84F8EF01D4F895
:103F60001C220123521CC4F82C2294F80102214681
:103F7000FFF796F8002084F80502002294F8010269
:103F80001146FFF765F800B10125284670BD2DE9FF
:103F9000F041044690F80402002728B3D4F82C52CC
:103FA00094F8010201232A462146FFF779F808B167
:103FB000012719E0002084F80402D4F82002D4F884
:103FC0001812281A88420FD294F803620AE0D4F833
:103FD00018020123054494F801022A462146FFF7FE
:103FE0005FF8761E022EF2D23846BDE8F08110B599
:103FF00088B1D0F8001271B191F800225AB1B1F82D
:104000000622B0F80402824205D191F80102FFF7BE
:104010003BF8C00700D0092010BD000070B5114C5E
:1040200005460F482269A9B1002A12D0511B01226E
:1040300021611021FCF78EFC05EB85008000A0605B
:1040400000210948FDF7A4FB60780028FCD000207F
:10405000607070BDDE2AFCD0511900222161E8E7B2
:10406000000C014004000020000B002070B5114C32
:1040700005460F486269A9B1002A12D0511B0122DE
:1040800061612021FCF766FC05EB85008000E060A3
:1040900004210948FDF77CFBA0780028FCD0002013
:1040A000A07070BDDE2AFCD0511900226161E8E7E2
:1040B000000C014004000020000B0020010202035C
:1040C0000405060708090A0B0C0D0E0F101000005E
:1040D00000000000000001020304060708090000B8
:1040E000000001020304809A90B68EB78F80D2D36D
:1040F000D4D8D7DE8E8F909292E299E3EAEB599969
:104100009A9D9C9D9E9FB5D6E0E9A5A5A6A7A8A9C6
:10411000AAABAC21AEAFB0B1B2B3B4B5B6B7B8B913
:10412000BABBBCBDBEBFC0C1C2C3C4C5C7C7C8C976
:10413000CACBCCCDCECFD0D1D2D3D4D5D6D7D8D967
:10414000DADBDCDDDEDFE0E1E2E3E5E5E6E7E7E957
:10415000EAEBEDEDEEEFF0F1F2F3F4F5F6F7F8F946
:10416000FAFBFCFDFEFF000400020001800040009D
:104170002000100008000400020000000080004041
:10418000002000100008004000200010000800047B
:1041900000020000B44100080000002058000000A8
:1041A000280100080C42000858000020C02D000023
:1041B00044010008FF0000000000000000000000B3
:1041C00000000000000000000000000000000000EF
:1041D0000000000000000000F1290008812A00080A
:1041E0005F2A0008952A0008112A00080000000034
:1041F00000000000010000001000000000000000AE
:0C42000000127A00000000000000000026
:04000005080000ED02
:00000001FF
